{"contracts/JobSubmission.sol":{"JobSubmission":{"abi":[{"anonymous":false,"inputs":[{"indexed":false,"internalType":"uint256","name":"jobId","type":"uint256"},{"indexed":false,"internalType":"address","name":"contributor","type":"address"}],"name":"JobCompleted","type":"event"},{"anonymous":false,"inputs":[{"indexed":false,"internalType":"uint256","name":"jobId","type":"uint256"},{"indexed":false,"internalType":"address","name":"researcher","type":"address"},{"indexed":false,"internalType":"uint256","name":"reward","type":"uint256"},{"indexed":false,"internalType":"uint256","name":"requiredGPU","type":"uint256"},{"indexed":false,"internalType":"uint256","name":"requiredCPU","type":"uint256"},{"indexed":false,"internalType":"uint256","name":"expectedRuntime","type":"uint256"},{"indexed":false,"internalType":"string","name":"details","type":"string"},{"indexed":false,"internalType":"string","name":"dockerImageHash","type":"string"}],"name":"JobSubmitted","type":"event"},{"inputs":[{"internalType":"uint256","name":"jobId","type":"uint256"},{"internalType":"address","name":"contributor","type":"address"}],"name":"completeJob","outputs":[],"stateMutability":"nonpayable","type":"function"},{"inputs":[{"internalType":"uint256","name":"jobId","type":"uint256"}],"name":"getJob","outputs":[{"components":[{"internalType":"uint256","name":"jobId","type":"uint256"},{"internalType":"address","name":"researcher","type":"address"},{"internalType":"uint256","name":"reward","type":"uint256"},{"internalType":"uint256","name":"requiredGPU","type":"uint256"},{"internalType":"uint256","name":"requiredCPU","type":"uint256"},{"internalType":"uint256","name":"expectedRuntime","type":"uint256"},{"internalType":"string","name":"details","type":"string"},{"internalType":"string","name":"dockerImageHash","type":"string"},{"internalType":"address","name":"contributor","type":"address"},{"internalType":"bool","name":"isCompleted","type":"bool"}],"internalType":"struct JobSubmission.Job","name":"","type":"tuple"}],"stateMutability":"view","type":"function"},{"inputs":[{"internalType":"uint256","name":"","type":"uint256"}],"name":"jobs","outputs":[{"internalType":"uint256","name":"jobId","type":"uint256"},{"internalType":"address","name":"researcher","type":"address"},{"internalType":"uint256","name":"reward","type":"uint256"},{"internalType":"uint256","name":"requiredGPU","type":"uint256"},{"internalType":"uint256","name":"requiredCPU","type":"uint256"},{"internalType":"uint256","name":"expectedRuntime","type":"uint256"},{"internalType":"string","name":"details","type":"string"},{"internalType":"string","name":"dockerImageHash","type":"string"},{"internalType":"address","name":"contributor","type":"address"},{"internalType":"bool","name":"isCompleted","type":"bool"}],"stateMutability":"view","type":"function"},{"inputs":[],"name":"nextJobId","outputs":[{"internalType":"uint256","name":"","type":"uint256"}],"stateMutability":"view","type":"function"},{"inputs":[{"internalType":"uint256","name":"reward","type":"uint256"},{"internalType":"uint256","name":"requiredGPU","type":"uint256"},{"internalType":"uint256","name":"requiredCPU","type":"uint256"},{"internalType":"uint256","name":"expectedRuntime","type":"uint256"},{"internalType":"string","name":"details","type":"string"},{"internalType":"string","name":"dockerImageHash","type":"string"}],"name":"submitJob","outputs":[],"stateMutability":"nonpayable","type":"function"}],"evm":{"bytecode":{"linkReferences":{},"object":"6080604052348015600f57600080fd5b506114bb8061001f6000396000f3fe608060405234801561001057600080fd5b50600436106100575760003560e01c8063180aedf31461005c57806355326414146100955780636a6b67d1146100b1578063b0c2aa5e146100cd578063bf22c457146100eb575b600080fd5b610076600480360381019061007191906109b0565b61011b565b60405161008c9a99989796959493929190610ad8565b60405180910390f35b6100af60048036038101906100aa9190610cb7565b6102cc565b005b6100cb60048036038101906100c69190610da8565b6104d0565b005b6100d5610695565b6040516100e29190610de8565b60405180910390f35b610105600480360381019061010091906109b0565b61069b565b6040516101129190610f5b565b60405180910390f35b60006020528060005260406000206000915090508060000154908060010160009054906101000a900473ffffffffffffffffffffffffffffffffffffffff169080600201549080600301549080600401549080600501549080600601805461018290610fac565b80601f01602080910402602001604051908101604052809291908181526020018280546101ae90610fac565b80156101fb5780601f106101d0576101008083540402835291602001916101fb565b820191906000526020600020905b8154815290600101906020018083116101de57829003601f168201915b50505050509080600701805461021090610fac565b80601f016020809104026020016040519081016040528092919081815260200182805461023c90610fac565b80156102895780601f1061025e57610100808354040283529160200191610289565b820191906000526020600020905b81548152906001019060200180831161026c57829003601f168201915b5050505050908060080160009054906101000a900473ffffffffffffffffffffffffffffffffffffffff16908060080160149054906101000a900460ff1690508a565b60405180610140016040528060015481526020013373ffffffffffffffffffffffffffffffffffffffff168152602001878152602001868152602001858152602001848152602001838152602001828152602001600073ffffffffffffffffffffffffffffffffffffffff1681526020016000151581525060008060015481526020019081526020016000206000820151816000015560208201518160010160006101000a81548173ffffffffffffffffffffffffffffffffffffffff021916908373ffffffffffffffffffffffffffffffffffffffff16021790555060408201518160020155606082015181600301556080820151816004015560a0820151816005015560c08201518160060190816103e69190611189565b5060e08201518160070190816103fc9190611189565b506101008201518160080160006101000a81548173ffffffffffffffffffffffffffffffffffffffff021916908373ffffffffffffffffffffffffffffffffffffffff1602179055506101208201518160080160146101000a81548160ff0219169083151502179055509050507fa8f663bfe73ead1a65feccec85102b8121d7926335093b042635498a4a73bf0d600154338888888888886040516104a898979695949392919061125b565b60405180910390a1600160008154809291906104c390611316565b9190505550505050505050565b3373ffffffffffffffffffffffffffffffffffffffff1660008084815260200190815260200160002060010160009054906101000a900473ffffffffffffffffffffffffffffffffffffffff1673ffffffffffffffffffffffffffffffffffffffff1614610573576040517f08c379a000000000000000000000000000000000000000000000000000000000815260040161056a906113d0565b60405180910390fd5b60008083815260200190815260200160002060080160149054906101000a900460ff16156105d6576040517f08c379a00000000000000000000000000000000000000000000000000000000081526004016105cd9061143c565b60405180910390fd5b8060008084815260200190815260200160002060080160006101000a81548173ffffffffffffffffffffffffffffffffffffffff021916908373ffffffffffffffffffffffffffffffffffffffff160217905550600160008084815260200190815260200160002060080160146101000a81548160ff0219169083151502179055507f16a7286196330eaff0c7db2ec34ead9c6d2d023b356b62ee7ea644c842a84b67828260405161068992919061145c565b60405180910390a15050565b60015481565b6106a36108e5565b60008083815260200190815260200160002060405180610140016040529081600082015481526020016001820160009054906101000a900473ffffffffffffffffffffffffffffffffffffffff1673ffffffffffffffffffffffffffffffffffffffff1673ffffffffffffffffffffffffffffffffffffffff1681526020016002820154815260200160038201548152602001600482015481526020016005820154815260200160068201805461075990610fac565b80601f016020809104026020016040519081016040528092919081815260200182805461078590610fac565b80156107d25780601f106107a7576101008083540402835291602001916107d2565b820191906000526020600020905b8154815290600101906020018083116107b557829003601f168201915b505050505081526020016007820180546107eb90610fac565b80601f016020809104026020016040519081016040528092919081815260200182805461081790610fac565b80156108645780601f1061083957610100808354040283529160200191610864565b820191906000526020600020905b81548152906001019060200180831161084757829003601f168201915b505050505081526020016008820160009054906101000a900473ffffffffffffffffffffffffffffffffffffffff1673ffffffffffffffffffffffffffffffffffffffff1673ffffffffffffffffffffffffffffffffffffffff1681526020016008820160149054906101000a900460ff1615151515815250509050919050565b60405180610140016040528060008152602001600073ffffffffffffffffffffffffffffffffffffffff168152602001600081526020016000815260200160008152602001600081526020016060815260200160608152602001600073ffffffffffffffffffffffffffffffffffffffff1681526020016000151581525090565b6000604051905090565b600080fd5b600080fd5b6000819050919050565b61098d8161097a565b811461099857600080fd5b50565b6000813590506109aa81610984565b92915050565b6000602082840312156109c6576109c5610970565b5b60006109d48482850161099b565b91505092915050565b6109e68161097a565b82525050565b600073ffffffffffffffffffffffffffffffffffffffff82169050919050565b6000610a17826109ec565b9050919050565b610a2781610a0c565b82525050565b600081519050919050565b600082825260208201905092915050565b60005b83811015610a67578082015181840152602081019050610a4c565b60008484015250505050565b6000601f19601f8301169050919050565b6000610a8f82610a2d565b610a998185610a38565b9350610aa9818560208601610a49565b610ab281610a73565b840191505092915050565b60008115159050919050565b610ad281610abd565b82525050565b600061014082019050610aee600083018d6109dd565b610afb602083018c610a1e565b610b08604083018b6109dd565b610b15606083018a6109dd565b610b2260808301896109dd565b610b2f60a08301886109dd565b81810360c0830152610b418187610a84565b905081810360e0830152610b558186610a84565b9050610b65610100830185610a1e565b610b73610120830184610ac9565b9b9a5050505050505050505050565b600080fd5b600080fd5b7f4e487b7100000000000000000000000000000000000000000000000000000000600052604160045260246000fd5b610bc482610a73565b810181811067ffffffffffffffff82111715610be357610be2610b8c565b5b80604052505050565b6000610bf6610966565b9050610c028282610bbb565b919050565b600067ffffffffffffffff821115610c2257610c21610b8c565b5b610c2b82610a73565b9050602081019050919050565b82818337600083830152505050565b6000610c5a610c5584610c07565b610bec565b905082815260208101848484011115610c7657610c75610b87565b5b610c81848285610c38565b509392505050565b600082601f830112610c9e57610c9d610b82565b5b8135610cae848260208601610c47565b91505092915050565b60008060008060008060c08789031215610cd457610cd3610970565b5b6000610ce289828a0161099b565b9650506020610cf389828a0161099b565b9550506040610d0489828a0161099b565b9450506060610d1589828a0161099b565b935050608087013567ffffffffffffffff811115610d3657610d35610975565b5b610d4289828a01610c89565b92505060a087013567ffffffffffffffff811115610d6357610d62610975565b5b610d6f89828a01610c89565b9150509295509295509295565b610d8581610a0c565b8114610d9057600080fd5b50565b600081359050610da281610d7c565b92915050565b60008060408385031215610dbf57610dbe610970565b5b6000610dcd8582860161099b565b9250506020610dde85828601610d93565b9150509250929050565b6000602082019050610dfd60008301846109dd565b92915050565b610e0c8161097a565b82525050565b610e1b81610a0c565b82525050565b600082825260208201905092915050565b6000610e3d82610a2d565b610e478185610e21565b9350610e57818560208601610a49565b610e6081610a73565b840191505092915050565b610e7481610abd565b82525050565b600061014083016000830151610e936000860182610e03565b506020830151610ea66020860182610e12565b506040830151610eb96040860182610e03565b506060830151610ecc6060860182610e03565b506080830151610edf6080860182610e03565b5060a0830151610ef260a0860182610e03565b5060c083015184820360c0860152610f0a8282610e32565b91505060e083015184820360e0860152610f248282610e32565b915050610100830151610f3b610100860182610e12565b50610120830151610f50610120860182610e6b565b508091505092915050565b60006020820190508181036000830152610f758184610e7a565b905092915050565b7f4e487b7100000000000000000000000000000000000000000000000000000000600052602260045260246000fd5b60006002820490506001821680610fc457607f821691505b602082108103610fd757610fd6610f7d565b5b50919050565b60008190508160005260206000209050919050565b60006020601f8301049050919050565b600082821b905092915050565b60006008830261103f7fffffffffffffffffffffffffffffffffffffffffffffffffffffffffffffffff82611002565b6110498683611002565b95508019841693508086168417925050509392505050565b6000819050919050565b600061108661108161107c8461097a565b611061565b61097a565b9050919050565b6000819050919050565b6110a08361106b565b6110b46110ac8261108d565b84845461100f565b825550505050565b600090565b6110c96110bc565b6110d4818484611097565b505050565b5b818110156110f8576110ed6000826110c1565b6001810190506110da565b5050565b601f82111561113d5761110e81610fdd565b61111784610ff2565b81016020851015611126578190505b61113a61113285610ff2565b8301826110d9565b50505b505050565b600082821c905092915050565b600061116060001984600802611142565b1980831691505092915050565b6000611179838361114f565b9150826002028217905092915050565b61119282610a2d565b67ffffffffffffffff8111156111ab576111aa610b8c565b5b6111b58254610fac565b6111c08282856110fc565b600060209050601f8311600181146111f357600084156111e1578287015190505b6111eb858261116d565b865550611253565b601f19841661120186610fdd565b60005b8281101561122957848901518255600182019150602085019450602081019050611204565b868310156112465784890151611242601f89168261114f565b8355505b6001600288020188555050505b505050505050565b600061010082019050611271600083018b6109dd565b61127e602083018a610a1e565b61128b60408301896109dd565b61129860608301886109dd565b6112a560808301876109dd565b6112b260a08301866109dd565b81810360c08301526112c48185610a84565b905081810360e08301526112d88184610a84565b90509998505050505050505050565b7f4e487b7100000000000000000000000000000000000000000000000000000000600052601160045260246000fd5b60006113218261097a565b91507fffffffffffffffffffffffffffffffffffffffffffffffffffffffffffffffff8203611353576113526112e7565b5b600182019050919050565b7f4f6e6c792074686520726573656172636865722063616e206d61726b206a6f6260008201527f20617320636f6d706c6574650000000000000000000000000000000000000000602082015250565b60006113ba602c83610a38565b91506113c58261135e565b604082019050919050565b600060208201905081810360008301526113e9816113ad565b9050919050565b7f4a6f6220697320616c726561647920636f6d706c657465640000000000000000600082015250565b6000611426601883610a38565b9150611431826113f0565b602082019050919050565b6000602082019050818103600083015261145581611419565b9050919050565b600060408201905061147160008301856109dd565b61147e6020830184610a1e565b939250505056fea264697066735822122077b59786450b7452d8c59748fc5c93d66a0a0892f756229e7bc24ccd28849a6f64736f6c634300081b0033","opcodes":"PUSH1 0x80 PUSH1 0x40 MSTORE CALLVALUE DUP1 ISZERO PUSH1 0xF JUMPI PUSH1 0x0 DUP1 REVERT JUMPDEST POP PUSH2 0x14BB DUP1 PUSH2 0x1F PUSH1 0x0 CODECOPY PUSH1 0x0 RETURN INVALID PUSH1 0x80 PUSH1 0x40 MSTORE CALLVALUE DUP1 ISZERO PUSH2 0x10 JUMPI PUSH1 0x0 DUP1 REVERT JUMPDEST POP PUSH1 0x4 CALLDATASIZE LT PUSH2 0x57 JUMPI PUSH1 0x0 CALLDATALOAD PUSH1 0xE0 SHR DUP1 PUSH4 0x180AEDF3 EQ PUSH2 0x5C JUMPI DUP1 PUSH4 0x55326414 EQ PUSH2 0x95 JUMPI DUP1 PUSH4 0x6A6B67D1 EQ PUSH2 0xB1 JUMPI DUP1 PUSH4 0xB0C2AA5E EQ PUSH2 0xCD JUMPI DUP1 PUSH4 0xBF22C457 EQ PUSH2 0xEB JUMPI JUMPDEST PUSH1 0x0 DUP1 REVERT JUMPDEST PUSH2 0x76 PUSH1 0x4 DUP1 CALLDATASIZE SUB DUP2 ADD SWAP1 PUSH2 0x71 SWAP2 SWAP1 PUSH2 0x9B0 JUMP JUMPDEST PUSH2 0x11B JUMP JUMPDEST PUSH1 0x40 MLOAD PUSH2 0x8C SWAP11 SWAP10 SWAP9 SWAP8 SWAP7 SWAP6 SWAP5 SWAP4 SWAP3 SWAP2 SWAP1 PUSH2 0xAD8 JUMP JUMPDEST PUSH1 0x40 MLOAD DUP1 SWAP2 SUB SWAP1 RETURN JUMPDEST PUSH2 0xAF PUSH1 0x4 DUP1 CALLDATASIZE SUB DUP2 ADD SWAP1 PUSH2 0xAA SWAP2 SWAP1 PUSH2 0xCB7 JUMP JUMPDEST PUSH2 0x2CC JUMP JUMPDEST STOP JUMPDEST PUSH2 0xCB PUSH1 0x4 DUP1 CALLDATASIZE SUB DUP2 ADD SWAP1 PUSH2 0xC6 SWAP2 SWAP1 PUSH2 0xDA8 JUMP JUMPDEST PUSH2 0x4D0 JUMP JUMPDEST STOP JUMPDEST PUSH2 0xD5 PUSH2 0x695 JUMP JUMPDEST PUSH1 0x40 MLOAD PUSH2 0xE2 SWAP2 SWAP1 PUSH2 0xDE8 JUMP JUMPDEST PUSH1 0x40 MLOAD DUP1 SWAP2 SUB SWAP1 RETURN JUMPDEST PUSH2 0x105 PUSH1 0x4 DUP1 CALLDATASIZE SUB DUP2 ADD SWAP1 PUSH2 0x100 SWAP2 SWAP1 PUSH2 0x9B0 JUMP JUMPDEST PUSH2 0x69B JUMP JUMPDEST PUSH1 0x40 MLOAD PUSH2 0x112 SWAP2 SWAP1 PUSH2 0xF5B JUMP JUMPDEST PUSH1 0x40 MLOAD DUP1 SWAP2 SUB SWAP1 RETURN JUMPDEST PUSH1 0x0 PUSH1 0x20 MSTORE DUP1 PUSH1 0x0 MSTORE PUSH1 0x40 PUSH1 0x0 KECCAK256 PUSH1 0x0 SWAP2 POP SWAP1 POP DUP1 PUSH1 0x0 ADD SLOAD SWAP1 DUP1 PUSH1 0x1 ADD PUSH1 0x0 SWAP1 SLOAD SWAP1 PUSH2 0x100 EXP SWAP1 DIV PUSH20 0xFFFFFFFFFFFFFFFFFFFFFFFFFFFFFFFFFFFFFFFF AND SWAP1 DUP1 PUSH1 0x2 ADD SLOAD SWAP1 DUP1 PUSH1 0x3 ADD SLOAD SWAP1 DUP1 PUSH1 0x4 ADD SLOAD SWAP1 DUP1 PUSH1 0x5 ADD SLOAD SWAP1 DUP1 PUSH1 0x6 ADD DUP1 SLOAD PUSH2 0x182 SWAP1 PUSH2 0xFAC JUMP JUMPDEST DUP1 PUSH1 0x1F ADD PUSH1 0x20 DUP1 SWAP2 DIV MUL PUSH1 0x20 ADD PUSH1 0x40 MLOAD SWAP1 DUP2 ADD PUSH1 0x40 MSTORE DUP1 SWAP3 SWAP2 SWAP1 DUP2 DUP2 MSTORE PUSH1 0x20 ADD DUP3 DUP1 SLOAD PUSH2 0x1AE SWAP1 PUSH2 0xFAC JUMP JUMPDEST DUP1 ISZERO PUSH2 0x1FB JUMPI DUP1 PUSH1 0x1F LT PUSH2 0x1D0 JUMPI PUSH2 0x100 DUP1 DUP4 SLOAD DIV MUL DUP4 MSTORE SWAP2 PUSH1 0x20 ADD SWAP2 PUSH2 0x1FB JUMP JUMPDEST DUP3 ADD SWAP2 SWAP1 PUSH1 0x0 MSTORE PUSH1 0x20 PUSH1 0x0 KECCAK256 SWAP1 JUMPDEST DUP2 SLOAD DUP2 MSTORE SWAP1 PUSH1 0x1 ADD SWAP1 PUSH1 0x20 ADD DUP1 DUP4 GT PUSH2 0x1DE JUMPI DUP3 SWAP1 SUB PUSH1 0x1F AND DUP3 ADD SWAP2 JUMPDEST POP POP POP POP POP SWAP1 DUP1 PUSH1 0x7 ADD DUP1 SLOAD PUSH2 0x210 SWAP1 PUSH2 0xFAC JUMP JUMPDEST DUP1 PUSH1 0x1F ADD PUSH1 0x20 DUP1 SWAP2 DIV MUL PUSH1 0x20 ADD PUSH1 0x40 MLOAD SWAP1 DUP2 ADD PUSH1 0x40 MSTORE DUP1 SWAP3 SWAP2 SWAP1 DUP2 DUP2 MSTORE PUSH1 0x20 ADD DUP3 DUP1 SLOAD PUSH2 0x23C SWAP1 PUSH2 0xFAC JUMP JUMPDEST DUP1 ISZERO PUSH2 0x289 JUMPI DUP1 PUSH1 0x1F LT PUSH2 0x25E JUMPI PUSH2 0x100 DUP1 DUP4 SLOAD DIV MUL DUP4 MSTORE SWAP2 PUSH1 0x20 ADD SWAP2 PUSH2 0x289 JUMP JUMPDEST DUP3 ADD SWAP2 SWAP1 PUSH1 0x0 MSTORE PUSH1 0x20 PUSH1 0x0 KECCAK256 SWAP1 JUMPDEST DUP2 SLOAD DUP2 MSTORE SWAP1 PUSH1 0x1 ADD SWAP1 PUSH1 0x20 ADD DUP1 DUP4 GT PUSH2 0x26C JUMPI DUP3 SWAP1 SUB PUSH1 0x1F AND DUP3 ADD SWAP2 JUMPDEST POP POP POP POP POP SWAP1 DUP1 PUSH1 0x8 ADD PUSH1 0x0 SWAP1 SLOAD SWAP1 PUSH2 0x100 EXP SWAP1 DIV PUSH20 0xFFFFFFFFFFFFFFFFFFFFFFFFFFFFFFFFFFFFFFFF AND SWAP1 DUP1 PUSH1 0x8 ADD PUSH1 0x14 SWAP1 SLOAD SWAP1 PUSH2 0x100 EXP SWAP1 DIV PUSH1 0xFF AND SWAP1 POP DUP11 JUMP JUMPDEST PUSH1 0x40 MLOAD DUP1 PUSH2 0x140 ADD PUSH1 0x40 MSTORE DUP1 PUSH1 0x1 SLOAD DUP2 MSTORE PUSH1 0x20 ADD CALLER PUSH20 0xFFFFFFFFFFFFFFFFFFFFFFFFFFFFFFFFFFFFFFFF AND DUP2 MSTORE PUSH1 0x20 ADD DUP8 DUP2 MSTORE PUSH1 0x20 ADD DUP7 DUP2 MSTORE PUSH1 0x20 ADD DUP6 DUP2 MSTORE PUSH1 0x20 ADD DUP5 DUP2 MSTORE PUSH1 0x20 ADD DUP4 DUP2 MSTORE PUSH1 0x20 ADD DUP3 DUP2 MSTORE PUSH1 0x20 ADD PUSH1 0x0 PUSH20 0xFFFFFFFFFFFFFFFFFFFFFFFFFFFFFFFFFFFFFFFF AND DUP2 MSTORE PUSH1 0x20 ADD PUSH1 0x0 ISZERO ISZERO DUP2 MSTORE POP PUSH1 0x0 DUP1 PUSH1 0x1 SLOAD DUP2 MSTORE PUSH1 0x20 ADD SWAP1 DUP2 MSTORE PUSH1 0x20 ADD PUSH1 0x0 KECCAK256 PUSH1 0x0 DUP3 ADD MLOAD DUP2 PUSH1 0x0 ADD SSTORE PUSH1 0x20 DUP3 ADD MLOAD DUP2 PUSH1 0x1 ADD PUSH1 0x0 PUSH2 0x100 EXP DUP2 SLOAD DUP2 PUSH20 0xFFFFFFFFFFFFFFFFFFFFFFFFFFFFFFFFFFFFFFFF MUL NOT AND SWAP1 DUP4 PUSH20 0xFFFFFFFFFFFFFFFFFFFFFFFFFFFFFFFFFFFFFFFF AND MUL OR SWAP1 SSTORE POP PUSH1 0x40 DUP3 ADD MLOAD DUP2 PUSH1 0x2 ADD SSTORE PUSH1 0x60 DUP3 ADD MLOAD DUP2 PUSH1 0x3 ADD SSTORE PUSH1 0x80 DUP3 ADD MLOAD DUP2 PUSH1 0x4 ADD SSTORE PUSH1 0xA0 DUP3 ADD MLOAD DUP2 PUSH1 0x5 ADD SSTORE PUSH1 0xC0 DUP3 ADD MLOAD DUP2 PUSH1 0x6 ADD SWAP1 DUP2 PUSH2 0x3E6 SWAP2 SWAP1 PUSH2 0x1189 JUMP JUMPDEST POP PUSH1 0xE0 DUP3 ADD MLOAD DUP2 PUSH1 0x7 ADD SWAP1 DUP2 PUSH2 0x3FC SWAP2 SWAP1 PUSH2 0x1189 JUMP JUMPDEST POP PUSH2 0x100 DUP3 ADD MLOAD DUP2 PUSH1 0x8 ADD PUSH1 0x0 PUSH2 0x100 EXP DUP2 SLOAD DUP2 PUSH20 0xFFFFFFFFFFFFFFFFFFFFFFFFFFFFFFFFFFFFFFFF MUL NOT AND SWAP1 DUP4 PUSH20 0xFFFFFFFFFFFFFFFFFFFFFFFFFFFFFFFFFFFFFFFF AND MUL OR SWAP1 SSTORE POP PUSH2 0x120 DUP3 ADD MLOAD DUP2 PUSH1 0x8 ADD PUSH1 0x14 PUSH2 0x100 EXP DUP2 SLOAD DUP2 PUSH1 0xFF MUL NOT AND SWAP1 DUP4 ISZERO ISZERO MUL OR SWAP1 SSTORE POP SWAP1 POP POP PUSH32 0xA8F663BFE73EAD1A65FECCEC85102B8121D7926335093B042635498A4A73BF0D PUSH1 0x1 SLOAD CALLER DUP9 DUP9 DUP9 DUP9 DUP9 DUP9 PUSH1 0x40 MLOAD PUSH2 0x4A8 SWAP9 SWAP8 SWAP7 SWAP6 SWAP5 SWAP4 SWAP3 SWAP2 SWAP1 PUSH2 0x125B JUMP JUMPDEST PUSH1 0x40 MLOAD DUP1 SWAP2 SUB SWAP1 LOG1 PUSH1 0x1 PUSH1 0x0 DUP2 SLOAD DUP1 SWAP3 SWAP2 SWAP1 PUSH2 0x4C3 SWAP1 PUSH2 0x1316 JUMP JUMPDEST SWAP2 SWAP1 POP SSTORE POP POP POP POP POP POP POP JUMP JUMPDEST CALLER PUSH20 0xFFFFFFFFFFFFFFFFFFFFFFFFFFFFFFFFFFFFFFFF AND PUSH1 0x0 DUP1 DUP5 DUP2 MSTORE PUSH1 0x20 ADD SWAP1 DUP2 MSTORE PUSH1 0x20 ADD PUSH1 0x0 KECCAK256 PUSH1 0x1 ADD PUSH1 0x0 SWAP1 SLOAD SWAP1 PUSH2 0x100 EXP SWAP1 DIV PUSH20 0xFFFFFFFFFFFFFFFFFFFFFFFFFFFFFFFFFFFFFFFF AND PUSH20 0xFFFFFFFFFFFFFFFFFFFFFFFFFFFFFFFFFFFFFFFF AND EQ PUSH2 0x573 JUMPI PUSH1 0x40 MLOAD PUSH32 0x8C379A000000000000000000000000000000000000000000000000000000000 DUP2 MSTORE PUSH1 0x4 ADD PUSH2 0x56A SWAP1 PUSH2 0x13D0 JUMP JUMPDEST PUSH1 0x40 MLOAD DUP1 SWAP2 SUB SWAP1 REVERT JUMPDEST PUSH1 0x0 DUP1 DUP4 DUP2 MSTORE PUSH1 0x20 ADD SWAP1 DUP2 MSTORE PUSH1 0x20 ADD PUSH1 0x0 KECCAK256 PUSH1 0x8 ADD PUSH1 0x14 SWAP1 SLOAD SWAP1 PUSH2 0x100 EXP SWAP1 DIV PUSH1 0xFF AND ISZERO PUSH2 0x5D6 JUMPI PUSH1 0x40 MLOAD PUSH32 0x8C379A000000000000000000000000000000000000000000000000000000000 DUP2 MSTORE PUSH1 0x4 ADD PUSH2 0x5CD SWAP1 PUSH2 0x143C JUMP JUMPDEST PUSH1 0x40 MLOAD DUP1 SWAP2 SUB SWAP1 REVERT JUMPDEST DUP1 PUSH1 0x0 DUP1 DUP5 DUP2 MSTORE PUSH1 0x20 ADD SWAP1 DUP2 MSTORE PUSH1 0x20 ADD PUSH1 0x0 KECCAK256 PUSH1 0x8 ADD PUSH1 0x0 PUSH2 0x100 EXP DUP2 SLOAD DUP2 PUSH20 0xFFFFFFFFFFFFFFFFFFFFFFFFFFFFFFFFFFFFFFFF MUL NOT AND SWAP1 DUP4 PUSH20 0xFFFFFFFFFFFFFFFFFFFFFFFFFFFFFFFFFFFFFFFF AND MUL OR SWAP1 SSTORE POP PUSH1 0x1 PUSH1 0x0 DUP1 DUP5 DUP2 MSTORE PUSH1 0x20 ADD SWAP1 DUP2 MSTORE PUSH1 0x20 ADD PUSH1 0x0 KECCAK256 PUSH1 0x8 ADD PUSH1 0x14 PUSH2 0x100 EXP DUP2 SLOAD DUP2 PUSH1 0xFF MUL NOT AND SWAP1 DUP4 ISZERO ISZERO MUL OR SWAP1 SSTORE POP PUSH32 0x16A7286196330EAFF0C7DB2EC34EAD9C6D2D023B356B62EE7EA644C842A84B67 DUP3 DUP3 PUSH1 0x40 MLOAD PUSH2 0x689 SWAP3 SWAP2 SWAP1 PUSH2 0x145C JUMP JUMPDEST PUSH1 0x40 MLOAD DUP1 SWAP2 SUB SWAP1 LOG1 POP POP JUMP JUMPDEST PUSH1 0x1 SLOAD DUP2 JUMP JUMPDEST PUSH2 0x6A3 PUSH2 0x8E5 JUMP JUMPDEST PUSH1 0x0 DUP1 DUP4 DUP2 MSTORE PUSH1 0x20 ADD SWAP1 DUP2 MSTORE PUSH1 0x20 ADD PUSH1 0x0 KECCAK256 PUSH1 0x40 MLOAD DUP1 PUSH2 0x140 ADD PUSH1 0x40 MSTORE SWAP1 DUP2 PUSH1 0x0 DUP3 ADD SLOAD DUP2 MSTORE PUSH1 0x20 ADD PUSH1 0x1 DUP3 ADD PUSH1 0x0 SWAP1 SLOAD SWAP1 PUSH2 0x100 EXP SWAP1 DIV PUSH20 0xFFFFFFFFFFFFFFFFFFFFFFFFFFFFFFFFFFFFFFFF AND PUSH20 0xFFFFFFFFFFFFFFFFFFFFFFFFFFFFFFFFFFFFFFFF AND PUSH20 0xFFFFFFFFFFFFFFFFFFFFFFFFFFFFFFFFFFFFFFFF AND DUP2 MSTORE PUSH1 0x20 ADD PUSH1 0x2 DUP3 ADD SLOAD DUP2 MSTORE PUSH1 0x20 ADD PUSH1 0x3 DUP3 ADD SLOAD DUP2 MSTORE PUSH1 0x20 ADD PUSH1 0x4 DUP3 ADD SLOAD DUP2 MSTORE PUSH1 0x20 ADD PUSH1 0x5 DUP3 ADD SLOAD DUP2 MSTORE PUSH1 0x20 ADD PUSH1 0x6 DUP3 ADD DUP1 SLOAD PUSH2 0x759 SWAP1 PUSH2 0xFAC JUMP JUMPDEST DUP1 PUSH1 0x1F ADD PUSH1 0x20 DUP1 SWAP2 DIV MUL PUSH1 0x20 ADD PUSH1 0x40 MLOAD SWAP1 DUP2 ADD PUSH1 0x40 MSTORE DUP1 SWAP3 SWAP2 SWAP1 DUP2 DUP2 MSTORE PUSH1 0x20 ADD DUP3 DUP1 SLOAD PUSH2 0x785 SWAP1 PUSH2 0xFAC JUMP JUMPDEST DUP1 ISZERO PUSH2 0x7D2 JUMPI DUP1 PUSH1 0x1F LT PUSH2 0x7A7 JUMPI PUSH2 0x100 DUP1 DUP4 SLOAD DIV MUL DUP4 MSTORE SWAP2 PUSH1 0x20 ADD SWAP2 PUSH2 0x7D2 JUMP JUMPDEST DUP3 ADD SWAP2 SWAP1 PUSH1 0x0 MSTORE PUSH1 0x20 PUSH1 0x0 KECCAK256 SWAP1 JUMPDEST DUP2 SLOAD DUP2 MSTORE SWAP1 PUSH1 0x1 ADD SWAP1 PUSH1 0x20 ADD DUP1 DUP4 GT PUSH2 0x7B5 JUMPI DUP3 SWAP1 SUB PUSH1 0x1F AND DUP3 ADD SWAP2 JUMPDEST POP POP POP POP POP DUP2 MSTORE PUSH1 0x20 ADD PUSH1 0x7 DUP3 ADD DUP1 SLOAD PUSH2 0x7EB SWAP1 PUSH2 0xFAC JUMP JUMPDEST DUP1 PUSH1 0x1F ADD PUSH1 0x20 DUP1 SWAP2 DIV MUL PUSH1 0x20 ADD PUSH1 0x40 MLOAD SWAP1 DUP2 ADD PUSH1 0x40 MSTORE DUP1 SWAP3 SWAP2 SWAP1 DUP2 DUP2 MSTORE PUSH1 0x20 ADD DUP3 DUP1 SLOAD PUSH2 0x817 SWAP1 PUSH2 0xFAC JUMP JUMPDEST DUP1 ISZERO PUSH2 0x864 JUMPI DUP1 PUSH1 0x1F LT PUSH2 0x839 JUMPI PUSH2 0x100 DUP1 DUP4 SLOAD DIV MUL DUP4 MSTORE SWAP2 PUSH1 0x20 ADD SWAP2 PUSH2 0x864 JUMP JUMPDEST DUP3 ADD SWAP2 SWAP1 PUSH1 0x0 MSTORE PUSH1 0x20 PUSH1 0x0 KECCAK256 SWAP1 JUMPDEST DUP2 SLOAD DUP2 MSTORE SWAP1 PUSH1 0x1 ADD SWAP1 PUSH1 0x20 ADD DUP1 DUP4 GT PUSH2 0x847 JUMPI DUP3 SWAP1 SUB PUSH1 0x1F AND DUP3 ADD SWAP2 JUMPDEST POP POP POP POP POP DUP2 MSTORE PUSH1 0x20 ADD PUSH1 0x8 DUP3 ADD PUSH1 0x0 SWAP1 SLOAD SWAP1 PUSH2 0x100 EXP SWAP1 DIV PUSH20 0xFFFFFFFFFFFFFFFFFFFFFFFFFFFFFFFFFFFFFFFF AND PUSH20 0xFFFFFFFFFFFFFFFFFFFFFFFFFFFFFFFFFFFFFFFF AND PUSH20 0xFFFFFFFFFFFFFFFFFFFFFFFFFFFFFFFFFFFFFFFF AND DUP2 MSTORE PUSH1 0x20 ADD PUSH1 0x8 DUP3 ADD PUSH1 0x14 SWAP1 SLOAD SWAP1 PUSH2 0x100 EXP SWAP1 DIV PUSH1 0xFF AND ISZERO ISZERO ISZERO ISZERO DUP2 MSTORE POP POP SWAP1 POP SWAP2 SWAP1 POP JUMP JUMPDEST PUSH1 0x40 MLOAD DUP1 PUSH2 0x140 ADD PUSH1 0x40 MSTORE DUP1 PUSH1 0x0 DUP2 MSTORE PUSH1 0x20 ADD PUSH1 0x0 PUSH20 0xFFFFFFFFFFFFFFFFFFFFFFFFFFFFFFFFFFFFFFFF AND DUP2 MSTORE PUSH1 0x20 ADD PUSH1 0x0 DUP2 MSTORE PUSH1 0x20 ADD PUSH1 0x0 DUP2 MSTORE PUSH1 0x20 ADD PUSH1 0x0 DUP2 MSTORE PUSH1 0x20 ADD PUSH1 0x0 DUP2 MSTORE PUSH1 0x20 ADD PUSH1 0x60 DUP2 MSTORE PUSH1 0x20 ADD PUSH1 0x60 DUP2 MSTORE PUSH1 0x20 ADD PUSH1 0x0 PUSH20 0xFFFFFFFFFFFFFFFFFFFFFFFFFFFFFFFFFFFFFFFF AND DUP2 MSTORE PUSH1 0x20 ADD PUSH1 0x0 ISZERO ISZERO DUP2 MSTORE POP SWAP1 JUMP JUMPDEST PUSH1 0x0 PUSH1 0x40 MLOAD SWAP1 POP SWAP1 JUMP JUMPDEST PUSH1 0x0 DUP1 REVERT JUMPDEST PUSH1 0x0 DUP1 REVERT JUMPDEST PUSH1 0x0 DUP2 SWAP1 POP SWAP2 SWAP1 POP JUMP JUMPDEST PUSH2 0x98D DUP2 PUSH2 0x97A JUMP JUMPDEST DUP2 EQ PUSH2 0x998 JUMPI PUSH1 0x0 DUP1 REVERT JUMPDEST POP JUMP JUMPDEST PUSH1 0x0 DUP2 CALLDATALOAD SWAP1 POP PUSH2 0x9AA DUP2 PUSH2 0x984 JUMP JUMPDEST SWAP3 SWAP2 POP POP JUMP JUMPDEST PUSH1 0x0 PUSH1 0x20 DUP3 DUP5 SUB SLT ISZERO PUSH2 0x9C6 JUMPI PUSH2 0x9C5 PUSH2 0x970 JUMP JUMPDEST JUMPDEST PUSH1 0x0 PUSH2 0x9D4 DUP5 DUP3 DUP6 ADD PUSH2 0x99B JUMP JUMPDEST SWAP2 POP POP SWAP3 SWAP2 POP POP JUMP JUMPDEST PUSH2 0x9E6 DUP2 PUSH2 0x97A JUMP JUMPDEST DUP3 MSTORE POP POP JUMP JUMPDEST PUSH1 0x0 PUSH20 0xFFFFFFFFFFFFFFFFFFFFFFFFFFFFFFFFFFFFFFFF DUP3 AND SWAP1 POP SWAP2 SWAP1 POP JUMP JUMPDEST PUSH1 0x0 PUSH2 0xA17 DUP3 PUSH2 0x9EC JUMP JUMPDEST SWAP1 POP SWAP2 SWAP1 POP JUMP JUMPDEST PUSH2 0xA27 DUP2 PUSH2 0xA0C JUMP JUMPDEST DUP3 MSTORE POP POP JUMP JUMPDEST PUSH1 0x0 DUP2 MLOAD SWAP1 POP SWAP2 SWAP1 POP JUMP JUMPDEST PUSH1 0x0 DUP3 DUP3 MSTORE PUSH1 0x20 DUP3 ADD SWAP1 POP SWAP3 SWAP2 POP POP JUMP JUMPDEST PUSH1 0x0 JUMPDEST DUP4 DUP2 LT ISZERO PUSH2 0xA67 JUMPI DUP1 DUP3 ADD MLOAD DUP2 DUP5 ADD MSTORE PUSH1 0x20 DUP2 ADD SWAP1 POP PUSH2 0xA4C JUMP JUMPDEST PUSH1 0x0 DUP5 DUP5 ADD MSTORE POP POP POP POP JUMP JUMPDEST PUSH1 0x0 PUSH1 0x1F NOT PUSH1 0x1F DUP4 ADD AND SWAP1 POP SWAP2 SWAP1 POP JUMP JUMPDEST PUSH1 0x0 PUSH2 0xA8F DUP3 PUSH2 0xA2D JUMP JUMPDEST PUSH2 0xA99 DUP2 DUP6 PUSH2 0xA38 JUMP JUMPDEST SWAP4 POP PUSH2 0xAA9 DUP2 DUP6 PUSH1 0x20 DUP7 ADD PUSH2 0xA49 JUMP JUMPDEST PUSH2 0xAB2 DUP2 PUSH2 0xA73 JUMP JUMPDEST DUP5 ADD SWAP2 POP POP SWAP3 SWAP2 POP POP JUMP JUMPDEST PUSH1 0x0 DUP2 ISZERO ISZERO SWAP1 POP SWAP2 SWAP1 POP JUMP JUMPDEST PUSH2 0xAD2 DUP2 PUSH2 0xABD JUMP JUMPDEST DUP3 MSTORE POP POP JUMP JUMPDEST PUSH1 0x0 PUSH2 0x140 DUP3 ADD SWAP1 POP PUSH2 0xAEE PUSH1 0x0 DUP4 ADD DUP14 PUSH2 0x9DD JUMP JUMPDEST PUSH2 0xAFB PUSH1 0x20 DUP4 ADD DUP13 PUSH2 0xA1E JUMP JUMPDEST PUSH2 0xB08 PUSH1 0x40 DUP4 ADD DUP12 PUSH2 0x9DD JUMP JUMPDEST PUSH2 0xB15 PUSH1 0x60 DUP4 ADD DUP11 PUSH2 0x9DD JUMP JUMPDEST PUSH2 0xB22 PUSH1 0x80 DUP4 ADD DUP10 PUSH2 0x9DD JUMP JUMPDEST PUSH2 0xB2F PUSH1 0xA0 DUP4 ADD DUP9 PUSH2 0x9DD JUMP JUMPDEST DUP2 DUP2 SUB PUSH1 0xC0 DUP4 ADD MSTORE PUSH2 0xB41 DUP2 DUP8 PUSH2 0xA84 JUMP JUMPDEST SWAP1 POP DUP2 DUP2 SUB PUSH1 0xE0 DUP4 ADD MSTORE PUSH2 0xB55 DUP2 DUP7 PUSH2 0xA84 JUMP JUMPDEST SWAP1 POP PUSH2 0xB65 PUSH2 0x100 DUP4 ADD DUP6 PUSH2 0xA1E JUMP JUMPDEST PUSH2 0xB73 PUSH2 0x120 DUP4 ADD DUP5 PUSH2 0xAC9 JUMP JUMPDEST SWAP12 SWAP11 POP POP POP POP POP POP POP POP POP POP POP JUMP JUMPDEST PUSH1 0x0 DUP1 REVERT JUMPDEST PUSH1 0x0 DUP1 REVERT JUMPDEST PUSH32 0x4E487B7100000000000000000000000000000000000000000000000000000000 PUSH1 0x0 MSTORE PUSH1 0x41 PUSH1 0x4 MSTORE PUSH1 0x24 PUSH1 0x0 REVERT JUMPDEST PUSH2 0xBC4 DUP3 PUSH2 0xA73 JUMP JUMPDEST DUP2 ADD DUP2 DUP2 LT PUSH8 0xFFFFFFFFFFFFFFFF DUP3 GT OR ISZERO PUSH2 0xBE3 JUMPI PUSH2 0xBE2 PUSH2 0xB8C JUMP JUMPDEST JUMPDEST DUP1 PUSH1 0x40 MSTORE POP POP POP JUMP JUMPDEST PUSH1 0x0 PUSH2 0xBF6 PUSH2 0x966 JUMP JUMPDEST SWAP1 POP PUSH2 0xC02 DUP3 DUP3 PUSH2 0xBBB JUMP JUMPDEST SWAP2 SWAP1 POP JUMP JUMPDEST PUSH1 0x0 PUSH8 0xFFFFFFFFFFFFFFFF DUP3 GT ISZERO PUSH2 0xC22 JUMPI PUSH2 0xC21 PUSH2 0xB8C JUMP JUMPDEST JUMPDEST PUSH2 0xC2B DUP3 PUSH2 0xA73 JUMP JUMPDEST SWAP1 POP PUSH1 0x20 DUP2 ADD SWAP1 POP SWAP2 SWAP1 POP JUMP JUMPDEST DUP3 DUP2 DUP4 CALLDATACOPY PUSH1 0x0 DUP4 DUP4 ADD MSTORE POP POP POP JUMP JUMPDEST PUSH1 0x0 PUSH2 0xC5A PUSH2 0xC55 DUP5 PUSH2 0xC07 JUMP JUMPDEST PUSH2 0xBEC JUMP JUMPDEST SWAP1 POP DUP3 DUP2 MSTORE PUSH1 0x20 DUP2 ADD DUP5 DUP5 DUP5 ADD GT ISZERO PUSH2 0xC76 JUMPI PUSH2 0xC75 PUSH2 0xB87 JUMP JUMPDEST JUMPDEST PUSH2 0xC81 DUP5 DUP3 DUP6 PUSH2 0xC38 JUMP JUMPDEST POP SWAP4 SWAP3 POP POP POP JUMP JUMPDEST PUSH1 0x0 DUP3 PUSH1 0x1F DUP4 ADD SLT PUSH2 0xC9E JUMPI PUSH2 0xC9D PUSH2 0xB82 JUMP JUMPDEST JUMPDEST DUP2 CALLDATALOAD PUSH2 0xCAE DUP5 DUP3 PUSH1 0x20 DUP7 ADD PUSH2 0xC47 JUMP JUMPDEST SWAP2 POP POP SWAP3 SWAP2 POP POP JUMP JUMPDEST PUSH1 0x0 DUP1 PUSH1 0x0 DUP1 PUSH1 0x0 DUP1 PUSH1 0xC0 DUP8 DUP10 SUB SLT ISZERO PUSH2 0xCD4 JUMPI PUSH2 0xCD3 PUSH2 0x970 JUMP JUMPDEST JUMPDEST PUSH1 0x0 PUSH2 0xCE2 DUP10 DUP3 DUP11 ADD PUSH2 0x99B JUMP JUMPDEST SWAP7 POP POP PUSH1 0x20 PUSH2 0xCF3 DUP10 DUP3 DUP11 ADD PUSH2 0x99B JUMP JUMPDEST SWAP6 POP POP PUSH1 0x40 PUSH2 0xD04 DUP10 DUP3 DUP11 ADD PUSH2 0x99B JUMP JUMPDEST SWAP5 POP POP PUSH1 0x60 PUSH2 0xD15 DUP10 DUP3 DUP11 ADD PUSH2 0x99B JUMP JUMPDEST SWAP4 POP POP PUSH1 0x80 DUP8 ADD CALLDATALOAD PUSH8 0xFFFFFFFFFFFFFFFF DUP2 GT ISZERO PUSH2 0xD36 JUMPI PUSH2 0xD35 PUSH2 0x975 JUMP JUMPDEST JUMPDEST PUSH2 0xD42 DUP10 DUP3 DUP11 ADD PUSH2 0xC89 JUMP JUMPDEST SWAP3 POP POP PUSH1 0xA0 DUP8 ADD CALLDATALOAD PUSH8 0xFFFFFFFFFFFFFFFF DUP2 GT ISZERO PUSH2 0xD63 JUMPI PUSH2 0xD62 PUSH2 0x975 JUMP JUMPDEST JUMPDEST PUSH2 0xD6F DUP10 DUP3 DUP11 ADD PUSH2 0xC89 JUMP JUMPDEST SWAP2 POP POP SWAP3 SWAP6 POP SWAP3 SWAP6 POP SWAP3 SWAP6 JUMP JUMPDEST PUSH2 0xD85 DUP2 PUSH2 0xA0C JUMP JUMPDEST DUP2 EQ PUSH2 0xD90 JUMPI PUSH1 0x0 DUP1 REVERT JUMPDEST POP JUMP JUMPDEST PUSH1 0x0 DUP2 CALLDATALOAD SWAP1 POP PUSH2 0xDA2 DUP2 PUSH2 0xD7C JUMP JUMPDEST SWAP3 SWAP2 POP POP JUMP JUMPDEST PUSH1 0x0 DUP1 PUSH1 0x40 DUP4 DUP6 SUB SLT ISZERO PUSH2 0xDBF JUMPI PUSH2 0xDBE PUSH2 0x970 JUMP JUMPDEST JUMPDEST PUSH1 0x0 PUSH2 0xDCD DUP6 DUP3 DUP7 ADD PUSH2 0x99B JUMP JUMPDEST SWAP3 POP POP PUSH1 0x20 PUSH2 0xDDE DUP6 DUP3 DUP7 ADD PUSH2 0xD93 JUMP JUMPDEST SWAP2 POP POP SWAP3 POP SWAP3 SWAP1 POP JUMP JUMPDEST PUSH1 0x0 PUSH1 0x20 DUP3 ADD SWAP1 POP PUSH2 0xDFD PUSH1 0x0 DUP4 ADD DUP5 PUSH2 0x9DD JUMP JUMPDEST SWAP3 SWAP2 POP POP JUMP JUMPDEST PUSH2 0xE0C DUP2 PUSH2 0x97A JUMP JUMPDEST DUP3 MSTORE POP POP JUMP JUMPDEST PUSH2 0xE1B DUP2 PUSH2 0xA0C JUMP JUMPDEST DUP3 MSTORE POP POP JUMP JUMPDEST PUSH1 0x0 DUP3 DUP3 MSTORE PUSH1 0x20 DUP3 ADD SWAP1 POP SWAP3 SWAP2 POP POP JUMP JUMPDEST PUSH1 0x0 PUSH2 0xE3D DUP3 PUSH2 0xA2D JUMP JUMPDEST PUSH2 0xE47 DUP2 DUP6 PUSH2 0xE21 JUMP JUMPDEST SWAP4 POP PUSH2 0xE57 DUP2 DUP6 PUSH1 0x20 DUP7 ADD PUSH2 0xA49 JUMP JUMPDEST PUSH2 0xE60 DUP2 PUSH2 0xA73 JUMP JUMPDEST DUP5 ADD SWAP2 POP POP SWAP3 SWAP2 POP POP JUMP JUMPDEST PUSH2 0xE74 DUP2 PUSH2 0xABD JUMP JUMPDEST DUP3 MSTORE POP POP JUMP JUMPDEST PUSH1 0x0 PUSH2 0x140 DUP4 ADD PUSH1 0x0 DUP4 ADD MLOAD PUSH2 0xE93 PUSH1 0x0 DUP7 ADD DUP3 PUSH2 0xE03 JUMP JUMPDEST POP PUSH1 0x20 DUP4 ADD MLOAD PUSH2 0xEA6 PUSH1 0x20 DUP7 ADD DUP3 PUSH2 0xE12 JUMP JUMPDEST POP PUSH1 0x40 DUP4 ADD MLOAD PUSH2 0xEB9 PUSH1 0x40 DUP7 ADD DUP3 PUSH2 0xE03 JUMP JUMPDEST POP PUSH1 0x60 DUP4 ADD MLOAD PUSH2 0xECC PUSH1 0x60 DUP7 ADD DUP3 PUSH2 0xE03 JUMP JUMPDEST POP PUSH1 0x80 DUP4 ADD MLOAD PUSH2 0xEDF PUSH1 0x80 DUP7 ADD DUP3 PUSH2 0xE03 JUMP JUMPDEST POP PUSH1 0xA0 DUP4 ADD MLOAD PUSH2 0xEF2 PUSH1 0xA0 DUP7 ADD DUP3 PUSH2 0xE03 JUMP JUMPDEST POP PUSH1 0xC0 DUP4 ADD MLOAD DUP5 DUP3 SUB PUSH1 0xC0 DUP7 ADD MSTORE PUSH2 0xF0A DUP3 DUP3 PUSH2 0xE32 JUMP JUMPDEST SWAP2 POP POP PUSH1 0xE0 DUP4 ADD MLOAD DUP5 DUP3 SUB PUSH1 0xE0 DUP7 ADD MSTORE PUSH2 0xF24 DUP3 DUP3 PUSH2 0xE32 JUMP JUMPDEST SWAP2 POP POP PUSH2 0x100 DUP4 ADD MLOAD PUSH2 0xF3B PUSH2 0x100 DUP7 ADD DUP3 PUSH2 0xE12 JUMP JUMPDEST POP PUSH2 0x120 DUP4 ADD MLOAD PUSH2 0xF50 PUSH2 0x120 DUP7 ADD DUP3 PUSH2 0xE6B JUMP JUMPDEST POP DUP1 SWAP2 POP POP SWAP3 SWAP2 POP POP JUMP JUMPDEST PUSH1 0x0 PUSH1 0x20 DUP3 ADD SWAP1 POP DUP2 DUP2 SUB PUSH1 0x0 DUP4 ADD MSTORE PUSH2 0xF75 DUP2 DUP5 PUSH2 0xE7A JUMP JUMPDEST SWAP1 POP SWAP3 SWAP2 POP POP JUMP JUMPDEST PUSH32 0x4E487B7100000000000000000000000000000000000000000000000000000000 PUSH1 0x0 MSTORE PUSH1 0x22 PUSH1 0x4 MSTORE PUSH1 0x24 PUSH1 0x0 REVERT JUMPDEST PUSH1 0x0 PUSH1 0x2 DUP3 DIV SWAP1 POP PUSH1 0x1 DUP3 AND DUP1 PUSH2 0xFC4 JUMPI PUSH1 0x7F DUP3 AND SWAP2 POP JUMPDEST PUSH1 0x20 DUP3 LT DUP2 SUB PUSH2 0xFD7 JUMPI PUSH2 0xFD6 PUSH2 0xF7D JUMP JUMPDEST JUMPDEST POP SWAP2 SWAP1 POP JUMP JUMPDEST PUSH1 0x0 DUP2 SWAP1 POP DUP2 PUSH1 0x0 MSTORE PUSH1 0x20 PUSH1 0x0 KECCAK256 SWAP1 POP SWAP2 SWAP1 POP JUMP JUMPDEST PUSH1 0x0 PUSH1 0x20 PUSH1 0x1F DUP4 ADD DIV SWAP1 POP SWAP2 SWAP1 POP JUMP JUMPDEST PUSH1 0x0 DUP3 DUP3 SHL SWAP1 POP SWAP3 SWAP2 POP POP JUMP JUMPDEST PUSH1 0x0 PUSH1 0x8 DUP4 MUL PUSH2 0x103F PUSH32 0xFFFFFFFFFFFFFFFFFFFFFFFFFFFFFFFFFFFFFFFFFFFFFFFFFFFFFFFFFFFFFFFF DUP3 PUSH2 0x1002 JUMP JUMPDEST PUSH2 0x1049 DUP7 DUP4 PUSH2 0x1002 JUMP JUMPDEST SWAP6 POP DUP1 NOT DUP5 AND SWAP4 POP DUP1 DUP7 AND DUP5 OR SWAP3 POP POP POP SWAP4 SWAP3 POP POP POP JUMP JUMPDEST PUSH1 0x0 DUP2 SWAP1 POP SWAP2 SWAP1 POP JUMP JUMPDEST PUSH1 0x0 PUSH2 0x1086 PUSH2 0x1081 PUSH2 0x107C DUP5 PUSH2 0x97A JUMP JUMPDEST PUSH2 0x1061 JUMP JUMPDEST PUSH2 0x97A JUMP JUMPDEST SWAP1 POP SWAP2 SWAP1 POP JUMP JUMPDEST PUSH1 0x0 DUP2 SWAP1 POP SWAP2 SWAP1 POP JUMP JUMPDEST PUSH2 0x10A0 DUP4 PUSH2 0x106B JUMP JUMPDEST PUSH2 0x10B4 PUSH2 0x10AC DUP3 PUSH2 0x108D JUMP JUMPDEST DUP5 DUP5 SLOAD PUSH2 0x100F JUMP JUMPDEST DUP3 SSTORE POP POP POP POP JUMP JUMPDEST PUSH1 0x0 SWAP1 JUMP JUMPDEST PUSH2 0x10C9 PUSH2 0x10BC JUMP JUMPDEST PUSH2 0x10D4 DUP2 DUP5 DUP5 PUSH2 0x1097 JUMP JUMPDEST POP POP POP JUMP JUMPDEST JUMPDEST DUP2 DUP2 LT ISZERO PUSH2 0x10F8 JUMPI PUSH2 0x10ED PUSH1 0x0 DUP3 PUSH2 0x10C1 JUMP JUMPDEST PUSH1 0x1 DUP2 ADD SWAP1 POP PUSH2 0x10DA JUMP JUMPDEST POP POP JUMP JUMPDEST PUSH1 0x1F DUP3 GT ISZERO PUSH2 0x113D JUMPI PUSH2 0x110E DUP2 PUSH2 0xFDD JUMP JUMPDEST PUSH2 0x1117 DUP5 PUSH2 0xFF2 JUMP JUMPDEST DUP2 ADD PUSH1 0x20 DUP6 LT ISZERO PUSH2 0x1126 JUMPI DUP2 SWAP1 POP JUMPDEST PUSH2 0x113A PUSH2 0x1132 DUP6 PUSH2 0xFF2 JUMP JUMPDEST DUP4 ADD DUP3 PUSH2 0x10D9 JUMP JUMPDEST POP POP JUMPDEST POP POP POP JUMP JUMPDEST PUSH1 0x0 DUP3 DUP3 SHR SWAP1 POP SWAP3 SWAP2 POP POP JUMP JUMPDEST PUSH1 0x0 PUSH2 0x1160 PUSH1 0x0 NOT DUP5 PUSH1 0x8 MUL PUSH2 0x1142 JUMP JUMPDEST NOT DUP1 DUP4 AND SWAP2 POP POP SWAP3 SWAP2 POP POP JUMP JUMPDEST PUSH1 0x0 PUSH2 0x1179 DUP4 DUP4 PUSH2 0x114F JUMP JUMPDEST SWAP2 POP DUP3 PUSH1 0x2 MUL DUP3 OR SWAP1 POP SWAP3 SWAP2 POP POP JUMP JUMPDEST PUSH2 0x1192 DUP3 PUSH2 0xA2D JUMP JUMPDEST PUSH8 0xFFFFFFFFFFFFFFFF DUP2 GT ISZERO PUSH2 0x11AB JUMPI PUSH2 0x11AA PUSH2 0xB8C JUMP JUMPDEST JUMPDEST PUSH2 0x11B5 DUP3 SLOAD PUSH2 0xFAC JUMP JUMPDEST PUSH2 0x11C0 DUP3 DUP3 DUP6 PUSH2 0x10FC JUMP JUMPDEST PUSH1 0x0 PUSH1 0x20 SWAP1 POP PUSH1 0x1F DUP4 GT PUSH1 0x1 DUP2 EQ PUSH2 0x11F3 JUMPI PUSH1 0x0 DUP5 ISZERO PUSH2 0x11E1 JUMPI DUP3 DUP8 ADD MLOAD SWAP1 POP JUMPDEST PUSH2 0x11EB DUP6 DUP3 PUSH2 0x116D JUMP JUMPDEST DUP7 SSTORE POP PUSH2 0x1253 JUMP JUMPDEST PUSH1 0x1F NOT DUP5 AND PUSH2 0x1201 DUP7 PUSH2 0xFDD JUMP JUMPDEST PUSH1 0x0 JUMPDEST DUP3 DUP2 LT ISZERO PUSH2 0x1229 JUMPI DUP5 DUP10 ADD MLOAD DUP3 SSTORE PUSH1 0x1 DUP3 ADD SWAP2 POP PUSH1 0x20 DUP6 ADD SWAP5 POP PUSH1 0x20 DUP2 ADD SWAP1 POP PUSH2 0x1204 JUMP JUMPDEST DUP7 DUP4 LT ISZERO PUSH2 0x1246 JUMPI DUP5 DUP10 ADD MLOAD PUSH2 0x1242 PUSH1 0x1F DUP10 AND DUP3 PUSH2 0x114F JUMP JUMPDEST DUP4 SSTORE POP JUMPDEST PUSH1 0x1 PUSH1 0x2 DUP9 MUL ADD DUP9 SSTORE POP POP POP JUMPDEST POP POP POP POP POP POP JUMP JUMPDEST PUSH1 0x0 PUSH2 0x100 DUP3 ADD SWAP1 POP PUSH2 0x1271 PUSH1 0x0 DUP4 ADD DUP12 PUSH2 0x9DD JUMP JUMPDEST PUSH2 0x127E PUSH1 0x20 DUP4 ADD DUP11 PUSH2 0xA1E JUMP JUMPDEST PUSH2 0x128B PUSH1 0x40 DUP4 ADD DUP10 PUSH2 0x9DD JUMP JUMPDEST PUSH2 0x1298 PUSH1 0x60 DUP4 ADD DUP9 PUSH2 0x9DD JUMP JUMPDEST PUSH2 0x12A5 PUSH1 0x80 DUP4 ADD DUP8 PUSH2 0x9DD JUMP JUMPDEST PUSH2 0x12B2 PUSH1 0xA0 DUP4 ADD DUP7 PUSH2 0x9DD JUMP JUMPDEST DUP2 DUP2 SUB PUSH1 0xC0 DUP4 ADD MSTORE PUSH2 0x12C4 DUP2 DUP6 PUSH2 0xA84 JUMP JUMPDEST SWAP1 POP DUP2 DUP2 SUB PUSH1 0xE0 DUP4 ADD MSTORE PUSH2 0x12D8 DUP2 DUP5 PUSH2 0xA84 JUMP JUMPDEST SWAP1 POP SWAP10 SWAP9 POP POP POP POP POP POP POP POP POP JUMP JUMPDEST PUSH32 0x4E487B7100000000000000000000000000000000000000000000000000000000 PUSH1 0x0 MSTORE PUSH1 0x11 PUSH1 0x4 MSTORE PUSH1 0x24 PUSH1 0x0 REVERT JUMPDEST PUSH1 0x0 PUSH2 0x1321 DUP3 PUSH2 0x97A JUMP JUMPDEST SWAP2 POP PUSH32 0xFFFFFFFFFFFFFFFFFFFFFFFFFFFFFFFFFFFFFFFFFFFFFFFFFFFFFFFFFFFFFFFF DUP3 SUB PUSH2 0x1353 JUMPI PUSH2 0x1352 PUSH2 0x12E7 JUMP JUMPDEST JUMPDEST PUSH1 0x1 DUP3 ADD SWAP1 POP SWAP2 SWAP1 POP JUMP JUMPDEST PUSH32 0x4F6E6C792074686520726573656172636865722063616E206D61726B206A6F62 PUSH1 0x0 DUP3 ADD MSTORE PUSH32 0x20617320636F6D706C6574650000000000000000000000000000000000000000 PUSH1 0x20 DUP3 ADD MSTORE POP JUMP JUMPDEST PUSH1 0x0 PUSH2 0x13BA PUSH1 0x2C DUP4 PUSH2 0xA38 JUMP JUMPDEST SWAP2 POP PUSH2 0x13C5 DUP3 PUSH2 0x135E JUMP JUMPDEST PUSH1 0x40 DUP3 ADD SWAP1 POP SWAP2 SWAP1 POP JUMP JUMPDEST PUSH1 0x0 PUSH1 0x20 DUP3 ADD SWAP1 POP DUP2 DUP2 SUB PUSH1 0x0 DUP4 ADD MSTORE PUSH2 0x13E9 DUP2 PUSH2 0x13AD JUMP JUMPDEST SWAP1 POP SWAP2 SWAP1 POP JUMP JUMPDEST PUSH32 0x4A6F6220697320616C726561647920636F6D706C657465640000000000000000 PUSH1 0x0 DUP3 ADD MSTORE POP JUMP JUMPDEST PUSH1 0x0 PUSH2 0x1426 PUSH1 0x18 DUP4 PUSH2 0xA38 JUMP JUMPDEST SWAP2 POP PUSH2 0x1431 DUP3 PUSH2 0x13F0 JUMP JUMPDEST PUSH1 0x20 DUP3 ADD SWAP1 POP SWAP2 SWAP1 POP JUMP JUMPDEST PUSH1 0x0 PUSH1 0x20 DUP3 ADD SWAP1 POP DUP2 DUP2 SUB PUSH1 0x0 DUP4 ADD MSTORE PUSH2 0x1455 DUP2 PUSH2 0x1419 JUMP JUMPDEST SWAP1 POP SWAP2 SWAP1 POP JUMP JUMPDEST PUSH1 0x0 PUSH1 0x40 DUP3 ADD SWAP1 POP PUSH2 0x1471 PUSH1 0x0 DUP4 ADD DUP6 PUSH2 0x9DD JUMP JUMPDEST PUSH2 0x147E PUSH1 0x20 DUP4 ADD DUP5 PUSH2 0xA1E JUMP JUMPDEST SWAP4 SWAP3 POP POP POP JUMP INVALID LOG2 PUSH5 0x6970667358 0x22 SLT KECCAK256 PUSH24 0xB59786450B7452D8C59748FC5C93D66A0A0892F756229E7B 0xC2 0x4C 0xCD 0x28 DUP5 SWAP11 PUSH16 0x64736F6C634300081B00330000000000 "},"methodIdentifiers":{"completeJob(uint256,address)":"6a6b67d1","getJob(uint256)":"bf22c457","jobs(uint256)":"180aedf3","nextJobId()":"b0c2aa5e","submitJob(uint256,uint256,uint256,uint256,string,string)":"55326414"}}}}}