{
  "_format": "hh-sol-artifact-1",
  "contractName": "JobSubmission",
  "sourceName": "contracts/JobSubmission.sol",
  "abi": [
    {
      "anonymous": false,
      "inputs": [
        {
          "indexed": false,
          "internalType": "uint256",
          "name": "jobId",
          "type": "uint256"
        },
        {
          "indexed": false,
          "internalType": "address",
          "name": "contributor",
          "type": "address"
        }
      ],
      "name": "JobCompleted",
      "type": "event"
    },
    {
      "anonymous": false,
      "inputs": [
        {
          "indexed": false,
          "internalType": "uint256",
          "name": "jobId",
          "type": "uint256"
        },
        {
          "indexed": false,
          "internalType": "address",
          "name": "researcher",
          "type": "address"
        },
        {
          "indexed": false,
          "internalType": "uint256",
          "name": "reward",
          "type": "uint256"
        },
        {
          "indexed": false,
          "internalType": "uint256",
          "name": "requiredGPU",
          "type": "uint256"
        },
        {
          "indexed": false,
          "internalType": "uint256",
          "name": "requiredCPU",
          "type": "uint256"
        },
        {
          "indexed": false,
          "internalType": "uint256",
          "name": "expectedRuntime",
          "type": "uint256"
        },
        {
          "indexed": false,
          "internalType": "string",
          "name": "details",
          "type": "string"
        },
        {
          "indexed": false,
          "internalType": "string",
          "name": "dockerImageHash",
          "type": "string"
        }
      ],
      "name": "JobSubmitted",
      "type": "event"
    },
    {
      "inputs": [
        {
          "internalType": "uint256",
          "name": "jobId",
          "type": "uint256"
        },
        {
          "internalType": "address",
          "name": "contributor",
          "type": "address"
        }
      ],
      "name": "completeJob",
      "outputs": [],
      "stateMutability": "nonpayable",
      "type": "function"
    },
    {
      "inputs": [
        {
          "internalType": "uint256",
          "name": "jobId",
          "type": "uint256"
        }
      ],
      "name": "getJob",
      "outputs": [
        {
          "components": [
            {
              "internalType": "uint256",
              "name": "jobId",
              "type": "uint256"
            },
            {
              "internalType": "address",
              "name": "researcher",
              "type": "address"
            },
            {
              "internalType": "uint256",
              "name": "reward",
              "type": "uint256"
            },
            {
              "internalType": "uint256",
              "name": "requiredGPU",
              "type": "uint256"
            },
            {
              "internalType": "uint256",
              "name": "requiredCPU",
              "type": "uint256"
            },
            {
              "internalType": "uint256",
              "name": "expectedRuntime",
              "type": "uint256"
            },
            {
              "internalType": "string",
              "name": "details",
              "type": "string"
            },
            {
              "internalType": "string",
              "name": "dockerImageHash",
              "type": "string"
            },
            {
              "internalType": "address",
              "name": "contributor",
              "type": "address"
            },
            {
              "internalType": "bool",
              "name": "isCompleted",
              "type": "bool"
            }
          ],
          "internalType": "struct JobSubmission.Job",
          "name": "",
          "type": "tuple"
        }
      ],
      "stateMutability": "view",
      "type": "function"
    },
    {
      "inputs": [
        {
          "internalType": "uint256",
          "name": "",
          "type": "uint256"
        }
      ],
      "name": "jobs",
      "outputs": [
        {
          "internalType": "uint256",
          "name": "jobId",
          "type": "uint256"
        },
        {
          "internalType": "address",
          "name": "researcher",
          "type": "address"
        },
        {
          "internalType": "uint256",
          "name": "reward",
          "type": "uint256"
        },
        {
          "internalType": "uint256",
          "name": "requiredGPU",
          "type": "uint256"
        },
        {
          "internalType": "uint256",
          "name": "requiredCPU",
          "type": "uint256"
        },
        {
          "internalType": "uint256",
          "name": "expectedRuntime",
          "type": "uint256"
        },
        {
          "internalType": "string",
          "name": "details",
          "type": "string"
        },
        {
          "internalType": "string",
          "name": "dockerImageHash",
          "type": "string"
        },
        {
          "internalType": "address",
          "name": "contributor",
          "type": "address"
        },
        {
          "internalType": "bool",
          "name": "isCompleted",
          "type": "bool"
        }
      ],
      "stateMutability": "view",
      "type": "function"
    },
    {
      "inputs": [],
      "name": "nextJobId",
      "outputs": [
        {
          "internalType": "uint256",
          "name": "",
          "type": "uint256"
        }
      ],
      "stateMutability": "view",
      "type": "function"
    },
    {
      "inputs": [
        {
          "internalType": "uint256",
          "name": "reward",
          "type": "uint256"
        },
        {
          "internalType": "uint256",
          "name": "requiredGPU",
          "type": "uint256"
        },
        {
          "internalType": "uint256",
          "name": "requiredCPU",
          "type": "uint256"
        },
        {
          "internalType": "uint256",
          "name": "expectedRuntime",
          "type": "uint256"
        },
        {
          "internalType": "string",
          "name": "details",
          "type": "string"
        },
        {
          "internalType": "string",
          "name": "dockerImageHash",
          "type": "string"
        }
      ],
      "name": "submitJob",
      "outputs": [],
      "stateMutability": "nonpayable",
      "type": "function"
    }
  ],
  "bytecode": "0x6080604052348015600f57600080fd5b506114bb8061001f6000396000f3fe608060405234801561001057600080fd5b50600436106100575760003560e01c8063180aedf31461005c57806355326414146100955780636a6b67d1146100b1578063b0c2aa5e146100cd578063bf22c457146100eb575b600080fd5b610076600480360381019061007191906109b0565b61011b565b60405161008c9a99989796959493929190610ad8565b60405180910390f35b6100af60048036038101906100aa9190610cb7565b6102cc565b005b6100cb60048036038101906100c69190610da8565b6104d0565b005b6100d5610695565b6040516100e29190610de8565b60405180910390f35b610105600480360381019061010091906109b0565b61069b565b6040516101129190610f5b565b60405180910390f35b60006020528060005260406000206000915090508060000154908060010160009054906101000a900473ffffffffffffffffffffffffffffffffffffffff169080600201549080600301549080600401549080600501549080600601805461018290610fac565b80601f01602080910402602001604051908101604052809291908181526020018280546101ae90610fac565b80156101fb5780601f106101d0576101008083540402835291602001916101fb565b820191906000526020600020905b8154815290600101906020018083116101de57829003601f168201915b50505050509080600701805461021090610fac565b80601f016020809104026020016040519081016040528092919081815260200182805461023c90610fac565b80156102895780601f1061025e57610100808354040283529160200191610289565b820191906000526020600020905b81548152906001019060200180831161026c57829003601f168201915b5050505050908060080160009054906101000a900473ffffffffffffffffffffffffffffffffffffffff16908060080160149054906101000a900460ff1690508a565b60405180610140016040528060015481526020013373ffffffffffffffffffffffffffffffffffffffff168152602001878152602001868152602001858152602001848152602001838152602001828152602001600073ffffffffffffffffffffffffffffffffffffffff1681526020016000151581525060008060015481526020019081526020016000206000820151816000015560208201518160010160006101000a81548173ffffffffffffffffffffffffffffffffffffffff021916908373ffffffffffffffffffffffffffffffffffffffff16021790555060408201518160020155606082015181600301556080820151816004015560a0820151816005015560c08201518160060190816103e69190611189565b5060e08201518160070190816103fc9190611189565b506101008201518160080160006101000a81548173ffffffffffffffffffffffffffffffffffffffff021916908373ffffffffffffffffffffffffffffffffffffffff1602179055506101208201518160080160146101000a81548160ff0219169083151502179055509050507fa8f663bfe73ead1a65feccec85102b8121d7926335093b042635498a4a73bf0d600154338888888888886040516104a898979695949392919061125b565b60405180910390a1600160008154809291906104c390611316565b9190505550505050505050565b3373ffffffffffffffffffffffffffffffffffffffff1660008084815260200190815260200160002060010160009054906101000a900473ffffffffffffffffffffffffffffffffffffffff1673ffffffffffffffffffffffffffffffffffffffff1614610573576040517f08c379a000000000000000000000000000000000000000000000000000000000815260040161056a906113d0565b60405180910390fd5b60008083815260200190815260200160002060080160149054906101000a900460ff16156105d6576040517f08c379a00000000000000000000000000000000000000000000000000000000081526004016105cd9061143c565b60405180910390fd5b8060008084815260200190815260200160002060080160006101000a81548173ffffffffffffffffffffffffffffffffffffffff021916908373ffffffffffffffffffffffffffffffffffffffff160217905550600160008084815260200190815260200160002060080160146101000a81548160ff0219169083151502179055507f16a7286196330eaff0c7db2ec34ead9c6d2d023b356b62ee7ea644c842a84b67828260405161068992919061145c565b60405180910390a15050565b60015481565b6106a36108e5565b60008083815260200190815260200160002060405180610140016040529081600082015481526020016001820160009054906101000a900473ffffffffffffffffffffffffffffffffffffffff1673ffffffffffffffffffffffffffffffffffffffff1673ffffffffffffffffffffffffffffffffffffffff1681526020016002820154815260200160038201548152602001600482015481526020016005820154815260200160068201805461075990610fac565b80601f016020809104026020016040519081016040528092919081815260200182805461078590610fac565b80156107d25780601f106107a7576101008083540402835291602001916107d2565b820191906000526020600020905b8154815290600101906020018083116107b557829003601f168201915b505050505081526020016007820180546107eb90610fac565b80601f016020809104026020016040519081016040528092919081815260200182805461081790610fac565b80156108645780601f1061083957610100808354040283529160200191610864565b820191906000526020600020905b81548152906001019060200180831161084757829003601f168201915b505050505081526020016008820160009054906101000a900473ffffffffffffffffffffffffffffffffffffffff1673ffffffffffffffffffffffffffffffffffffffff1673ffffffffffffffffffffffffffffffffffffffff1681526020016008820160149054906101000a900460ff1615151515815250509050919050565b60405180610140016040528060008152602001600073ffffffffffffffffffffffffffffffffffffffff168152602001600081526020016000815260200160008152602001600081526020016060815260200160608152602001600073ffffffffffffffffffffffffffffffffffffffff1681526020016000151581525090565b6000604051905090565b600080fd5b600080fd5b6000819050919050565b61098d8161097a565b811461099857600080fd5b50565b6000813590506109aa81610984565b92915050565b6000602082840312156109c6576109c5610970565b5b60006109d48482850161099b565b91505092915050565b6109e68161097a565b82525050565b600073ffffffffffffffffffffffffffffffffffffffff82169050919050565b6000610a17826109ec565b9050919050565b610a2781610a0c565b82525050565b600081519050919050565b600082825260208201905092915050565b60005b83811015610a67578082015181840152602081019050610a4c565b60008484015250505050565b6000601f19601f8301169050919050565b6000610a8f82610a2d565b610a998185610a38565b9350610aa9818560208601610a49565b610ab281610a73565b840191505092915050565b60008115159050919050565b610ad281610abd565b82525050565b600061014082019050610aee600083018d6109dd565b610afb602083018c610a1e565b610b08604083018b6109dd565b610b15606083018a6109dd565b610b2260808301896109dd565b610b2f60a08301886109dd565b81810360c0830152610b418187610a84565b905081810360e0830152610b558186610a84565b9050610b65610100830185610a1e565b610b73610120830184610ac9565b9b9a5050505050505050505050565b600080fd5b600080fd5b7f4e487b7100000000000000000000000000000000000000000000000000000000600052604160045260246000fd5b610bc482610a73565b810181811067ffffffffffffffff82111715610be357610be2610b8c565b5b80604052505050565b6000610bf6610966565b9050610c028282610bbb565b919050565b600067ffffffffffffffff821115610c2257610c21610b8c565b5b610c2b82610a73565b9050602081019050919050565b82818337600083830152505050565b6000610c5a610c5584610c07565b610bec565b905082815260208101848484011115610c7657610c75610b87565b5b610c81848285610c38565b509392505050565b600082601f830112610c9e57610c9d610b82565b5b8135610cae848260208601610c47565b91505092915050565b60008060008060008060c08789031215610cd457610cd3610970565b5b6000610ce289828a0161099b565b9650506020610cf389828a0161099b565b9550506040610d0489828a0161099b565b9450506060610d1589828a0161099b565b935050608087013567ffffffffffffffff811115610d3657610d35610975565b5b610d4289828a01610c89565b92505060a087013567ffffffffffffffff811115610d6357610d62610975565b5b610d6f89828a01610c89565b9150509295509295509295565b610d8581610a0c565b8114610d9057600080fd5b50565b600081359050610da281610d7c565b92915050565b60008060408385031215610dbf57610dbe610970565b5b6000610dcd8582860161099b565b9250506020610dde85828601610d93565b9150509250929050565b6000602082019050610dfd60008301846109dd565b92915050565b610e0c8161097a565b82525050565b610e1b81610a0c565b82525050565b600082825260208201905092915050565b6000610e3d82610a2d565b610e478185610e21565b9350610e57818560208601610a49565b610e6081610a73565b840191505092915050565b610e7481610abd565b82525050565b600061014083016000830151610e936000860182610e03565b506020830151610ea66020860182610e12565b506040830151610eb96040860182610e03565b506060830151610ecc6060860182610e03565b506080830151610edf6080860182610e03565b5060a0830151610ef260a0860182610e03565b5060c083015184820360c0860152610f0a8282610e32565b91505060e083015184820360e0860152610f248282610e32565b915050610100830151610f3b610100860182610e12565b50610120830151610f50610120860182610e6b565b508091505092915050565b60006020820190508181036000830152610f758184610e7a565b905092915050565b7f4e487b7100000000000000000000000000000000000000000000000000000000600052602260045260246000fd5b60006002820490506001821680610fc457607f821691505b602082108103610fd757610fd6610f7d565b5b50919050565b60008190508160005260206000209050919050565b60006020601f8301049050919050565b600082821b905092915050565b60006008830261103f7fffffffffffffffffffffffffffffffffffffffffffffffffffffffffffffffff82611002565b6110498683611002565b95508019841693508086168417925050509392505050565b6000819050919050565b600061108661108161107c8461097a565b611061565b61097a565b9050919050565b6000819050919050565b6110a08361106b565b6110b46110ac8261108d565b84845461100f565b825550505050565b600090565b6110c96110bc565b6110d4818484611097565b505050565b5b818110156110f8576110ed6000826110c1565b6001810190506110da565b5050565b601f82111561113d5761110e81610fdd565b61111784610ff2565b81016020851015611126578190505b61113a61113285610ff2565b8301826110d9565b50505b505050565b600082821c905092915050565b600061116060001984600802611142565b1980831691505092915050565b6000611179838361114f565b9150826002028217905092915050565b61119282610a2d565b67ffffffffffffffff8111156111ab576111aa610b8c565b5b6111b58254610fac565b6111c08282856110fc565b600060209050601f8311600181146111f357600084156111e1578287015190505b6111eb858261116d565b865550611253565b601f19841661120186610fdd565b60005b8281101561122957848901518255600182019150602085019450602081019050611204565b868310156112465784890151611242601f89168261114f565b8355505b6001600288020188555050505b505050505050565b600061010082019050611271600083018b6109dd565b61127e602083018a610a1e565b61128b60408301896109dd565b61129860608301886109dd565b6112a560808301876109dd565b6112b260a08301866109dd565b81810360c08301526112c48185610a84565b905081810360e08301526112d88184610a84565b90509998505050505050505050565b7f4e487b7100000000000000000000000000000000000000000000000000000000600052601160045260246000fd5b60006113218261097a565b91507fffffffffffffffffffffffffffffffffffffffffffffffffffffffffffffffff8203611353576113526112e7565b5b600182019050919050565b7f4f6e6c792074686520726573656172636865722063616e206d61726b206a6f6260008201527f20617320636f6d706c6574650000000000000000000000000000000000000000602082015250565b60006113ba602c83610a38565b91506113c58261135e565b604082019050919050565b600060208201905081810360008301526113e9816113ad565b9050919050565b7f4a6f6220697320616c726561647920636f6d706c657465640000000000000000600082015250565b6000611426601883610a38565b9150611431826113f0565b602082019050919050565b6000602082019050818103600083015261145581611419565b9050919050565b600060408201905061147160008301856109dd565b61147e6020830184610a1e565b939250505056fea264697066735822122077b59786450b7452d8c59748fc5c93d66a0a0892f756229e7bc24ccd28849a6f64736f6c634300081b0033",
  "linkReferences": {},
  "deployedLinkReferences": {}
}